{
    "_format": "hh-sol-artifact-1",
    "contractName": "CommitmentContract",
    "sourceName": "contracts/Commitment.sol",
    "abi": [
        {
            "inputs": [],
            "stateMutability": "nonpayable",
            "type": "constructor"
        },
        {
            "anonymous": false,
            "inputs": [
                {
                    "indexed": true,
                    "internalType": "uint256",
                    "name": "id",
                    "type": "uint256"
                }
            ],
            "name": "CommitmentCancelled",
            "type": "event"
        },
        {
            "anonymous": false,
            "inputs": [
                {
                    "indexed": true,
                    "internalType": "uint256",
                    "name": "id",
                    "type": "uint256"
                },
                {
                    "indexed": true,
                    "internalType": "address",
                    "name": "author",
                    "type": "address"
                },
                {
                    "indexed": false,
                    "internalType": "string",
                    "name": "title",
                    "type": "string"
                }
            ],
            "name": "CommitmentCreated",
            "type": "event"
        },
        {
            "anonymous": false,
            "inputs": [
                {
                    "indexed": true,
                    "internalType": "uint256",
                    "name": "id",
                    "type": "uint256"
                },
                {
                    "indexed": true,
                    "internalType": "address",
                    "name": "author",
                    "type": "address"
                }
            ],
            "name": "CommitmentSuccess",
            "type": "event"
        },
        {
            "anonymous": false,
            "inputs": [
                {
                    "indexed": true,
                    "internalType": "uint256",
                    "name": "id",
                    "type": "uint256"
                },
                {
                    "indexed": true,
                    "internalType": "address",
                    "name": "author",
                    "type": "address"
                },
                {
                    "indexed": false,
                    "internalType": "enum CommitmentContract.CommitmentStatus",
                    "name": "status",
                    "type": "uint8"
                }
            ],
            "name": "CommitmentUpdated",
            "type": "event"
        },
        {
            "anonymous": false,
            "inputs": [
                {
                    "indexed": true,
                    "internalType": "uint256",
                    "name": "id",
                    "type": "uint256"
                },
                {
                    "indexed": true,
                    "internalType": "address",
                    "name": "voter",
                    "type": "address"
                },
                {
                    "indexed": false,
                    "internalType": "bool",
                    "name": "voteFor",
                    "type": "bool"
                }
            ],
            "name": "VoteCasted",
            "type": "event"
        },
        {
            "inputs": [],
            "name": "_owner",
            "outputs": [
                {
                    "internalType": "address",
                    "name": "",
                    "type": "address"
                }
            ],
            "stateMutability": "view",
            "type": "function"
        },
        {
            "inputs": [
                {
                    "internalType": "uint256",
                    "name": "_id",
                    "type": "uint256"
                }
            ],
            "name": "cancelCommitment",
            "outputs": [],
            "stateMutability": "nonpayable",
            "type": "function"
        },
        {
            "inputs": [
                {
                    "internalType": "uint256",
                    "name": "",
                    "type": "uint256"
                }
            ],
            "name": "commitmentIds",
            "outputs": [
                {
                    "internalType": "uint256",
                    "name": "",
                    "type": "uint256"
                }
            ],
            "stateMutability": "view",
            "type": "function"
        },
        {
            "inputs": [
                {
                    "internalType": "uint256",
                    "name": "",
                    "type": "uint256"
                }
            ],
            "name": "commitments",
            "outputs": [
                {
                    "internalType": "uint256",
                    "name": "id",
                    "type": "uint256"
                },
                {
                    "internalType": "address",
                    "name": "author",
                    "type": "address"
                },
                {
                    "internalType": "string",
                    "name": "title",
                    "type": "string"
                },
                {
                    "internalType": "string",
                    "name": "description",
                    "type": "string"
                },
                {
                    "internalType": "string",
                    "name": "image",
                    "type": "string"
                },
                {
                    "internalType": "enum CommitmentContract.CommitmentStatus",
                    "name": "status",
                    "type": "uint8"
                },
                {
                    "internalType": "uint256",
                    "name": "endDate",
                    "type": "uint256"
                },
                {
                    "internalType": "uint256",
                    "name": "createdAt",
                    "type": "uint256"
                },
                {
                    "internalType": "uint256",
                    "name": "updatedAt",
                    "type": "uint256"
                },
                {
                    "internalType": "uint256",
                    "name": "votesFor",
                    "type": "uint256"
                },
                {
                    "internalType": "uint256",
                    "name": "votesAgainst",
                    "type": "uint256"
                }
            ],
            "stateMutability": "view",
            "type": "function"
        },
        {
            "inputs": [
                {
                    "internalType": "address",
                    "name": "_address",
                    "type": "address"
                },
                {
                    "internalType": "string",
                    "name": "_title",
                    "type": "string"
                },
                {
                    "internalType": "string",
                    "name": "_description",
                    "type": "string"
                },
                {
                    "internalType": "string",
                    "name": "_image",
                    "type": "string"
                },
                {
                    "internalType": "uint256",
                    "name": "_endDate",
                    "type": "uint256"
                }
            ],
            "name": "createCommitment",
            "outputs": [],
            "stateMutability": "nonpayable",
            "type": "function"
        },
        {
            "inputs": [],
            "name": "executeDailyJob",
            "outputs": [
                {
                    "internalType": "uint256[]",
                    "name": "",
                    "type": "uint256[]"
                }
            ],
            "stateMutability": "nonpayable",
            "type": "function"
        },
        {
            "inputs": [],
            "name": "getAllCommitments",
            "outputs": [
                {
                    "components": [
                        {
                            "internalType": "uint256",
                            "name": "id",
                            "type": "uint256"
                        },
                        {
                            "internalType": "address",
                            "name": "author",
                            "type": "address"
                        },
                        {
                            "internalType": "string",
                            "name": "title",
                            "type": "string"
                        },
                        {
                            "internalType": "string",
                            "name": "description",
                            "type": "string"
                        },
                        {
                            "internalType": "string",
                            "name": "image",
                            "type": "string"
                        },
                        {
                            "internalType": "enum CommitmentContract.CommitmentStatus",
                            "name": "status",
                            "type": "uint8"
                        },
                        {
                            "internalType": "uint256",
                            "name": "endDate",
                            "type": "uint256"
                        },
                        {
                            "internalType": "uint256",
                            "name": "createdAt",
                            "type": "uint256"
                        },
                        {
                            "internalType": "uint256",
                            "name": "updatedAt",
                            "type": "uint256"
                        },
                        {
                            "internalType": "uint256",
                            "name": "votesFor",
                            "type": "uint256"
                        },
                        {
                            "internalType": "uint256",
                            "name": "votesAgainst",
                            "type": "uint256"
                        },
                        {
                            "internalType": "address[]",
                            "name": "voters",
                            "type": "address[]"
                        }
                    ],
                    "internalType": "struct CommitmentContract.CommitmentView[]",
                    "name": "",
                    "type": "tuple[]"
                }
            ],
            "stateMutability": "view",
            "type": "function"
        },
        {
            "inputs": [
                {
                    "internalType": "uint256",
                    "name": "_commitmentId",
                    "type": "uint256"
                }
            ],
            "name": "getCommitmentAuthor",
            "outputs": [
                {
                    "internalType": "address",
                    "name": "",
                    "type": "address"
                }
            ],
            "stateMutability": "view",
            "type": "function"
        },
        {
            "inputs": [
                {
                    "internalType": "uint256",
                    "name": "_commitmentId",
                    "type": "uint256"
                }
            ],
            "name": "getCommitmentStatus",
            "outputs": [
                {
                    "internalType": "enum CommitmentContract.CommitmentStatus",
                    "name": "",
                    "type": "uint8"
                }
            ],
            "stateMutability": "view",
            "type": "function"
        },
        {
            "inputs": [
                {
                    "internalType": "uint256",
                    "name": "_commitmentId",
                    "type": "uint256"
                }
            ],
            "name": "getCommitmentStatusBool",
            "outputs": [
                {
                    "internalType": "bool",
                    "name": "",
                    "type": "bool"
                }
            ],
            "stateMutability": "view",
            "type": "function"
        },
        {
            "inputs": [
                {
                    "internalType": "uint256[]",
                    "name": "_commitmentIds",
                    "type": "uint256[]"
                }
            ],
            "name": "getSuccessfulCommitmentAuthors",
            "outputs": [
                {
                    "internalType": "address[]",
                    "name": "",
                    "type": "address[]"
                }
            ],
            "stateMutability": "view",
            "type": "function"
        },
        {
            "inputs": [
                {
                    "internalType": "uint256",
                    "name": "_commitmentId",
                    "type": "uint256"
                },
                {
                    "internalType": "bool",
                    "name": "_voteFor",
                    "type": "bool"
                }
            ],
            "name": "getVotersByVote",
            "outputs": [
                {
                    "internalType": "address[]",
                    "name": "",
                    "type": "address[]"
                }
            ],
            "stateMutability": "view",
            "type": "function"
        },
        {
            "inputs": [],
            "name": "nextCommitmentId",
            "outputs": [
                {
                    "internalType": "uint256",
                    "name": "",
                    "type": "uint256"
                }
            ],
            "stateMutability": "view",
            "type": "function"
        },
        {
            "inputs": [
                {
                    "internalType": "address",
                    "name": "_PAGAContractAddress",
                    "type": "address"
                }
            ],
            "name": "setPagaContract",
            "outputs": [],
            "stateMutability": "nonpayable",
            "type": "function"
        },
        {
            "inputs": [
                {
                    "internalType": "address",
                    "name": "voter",
                    "type": "address"
                },
                {
                    "internalType": "uint256",
                    "name": "_commitmentID",
                    "type": "uint256"
                },
                {
                    "internalType": "bool",
                    "name": "_voteFor",
                    "type": "bool"
                }
            ],
            "name": "voteOnCommitment",
            "outputs": [],
            "stateMutability": "nonpayable",
            "type": "function"
        }
    ],
    "bytecode": "0x6080604052348015600f57600080fd5b50336000806101000a81548173ffffffffffffffffffffffffffffffffffffffff021916908373ffffffffffffffffffffffffffffffffffffffff160217905550612cde8061005f6000396000f3fe608060405234801561001057600080fd5b50600436106100f55760003560e01c8063ad9042dc11610097578063c59a18f711610066578063c59a18f714610290578063cea7fa4e146102c0578063dde56f1a146102dc578063e3ea3be51461030c576100f5565b8063ad9042dc1461020a578063b2bdfa7b1461023a578063bb8a3bb814610258578063c4a6147b14610274576100f5565b806349ce8997116100d357806349ce899714610178578063592d1cdc146101b25780635ac48e6d146101d0578063840a1ff4146101ee576100f5565b8063035060e9146100fa5780632c0ee3c41461012a5780633e07d05914610148575b600080fd5b610114600480360381019061010f9190611a9d565b61033c565b6040516101219190611bcd565b60405180910390f35b6101326105cf565b60405161013f9190611f4f565b60405180910390f35b610162600480360381019061015d9190611f71565b61099a565b60405161016f9190611fad565b60405180910390f35b610192600480360381019061018d9190611f71565b6109da565b6040516101a99b9a99989796959493929190612030565b60405180910390f35b6101ba610bf9565b6040516101c7919061219f565b60405180910390f35b6101d8610dca565b6040516101e591906121c1565b60405180910390f35b61020860048036038101906102039190611f71565b610dd0565b005b610224600480360381019061021f9190611f71565b610f58565b60405161023191906121eb565b60405180910390f35b610242610fac565b60405161024f9190611fad565b60405180910390f35b610272600480360381019061026d9190612367565b610fd0565b005b61028e60048036038101906102899190612436565b6111dd565b005b6102aa60048036038101906102a59190611f71565b6112b2565b6040516102b791906121c1565b60405180910390f35b6102da60048036038101906102d59190612463565b6112d6565b005b6102f660048036038101906102f19190611f71565b6115d7565b60405161030391906124b6565b60405180910390f35b61032660048036038101906103219190612599565b611604565b6040516103339190611bcd565b60405180910390f35b606060006002600085815260200190815260200160002090506000805b82600c018054905081101561041d5784151583600b01600085600c018481548110610387576103866125e2565b5b9060005260206000200160009054906101000a900473ffffffffffffffffffffffffffffffffffffffff1673ffffffffffffffffffffffffffffffffffffffff1673ffffffffffffffffffffffffffffffffffffffff16815260200190815260200160002060009054906101000a900460ff1615150361041057818061040c90612640565b9250505b8080600101915050610359565b5060008167ffffffffffffffff81111561043a5761043961223c565b5b6040519080825280602002602001820160405280156104685781602001602082028036833780820191505090505b5090506000805b84600c01805490508110156105c15786151585600b01600087600c01848154811061049d5761049c6125e2565b5b9060005260206000200160009054906101000a900473ffffffffffffffffffffffffffffffffffffffff1673ffffffffffffffffffffffffffffffffffffffff1673ffffffffffffffffffffffffffffffffffffffff16815260200190815260200160002060009054906101000a900460ff161515036105b45784600c01818154811061052d5761052c6125e2565b5b9060005260206000200160009054906101000a900473ffffffffffffffffffffffffffffffffffffffff1683838151811061056b5761056a6125e2565b5b602002602001019073ffffffffffffffffffffffffffffffffffffffff16908173ffffffffffffffffffffffffffffffffffffffff168152505081806105b090612640565b9250505b808060010191505061046f565b508194505050505092915050565b6060600060048054905067ffffffffffffffff8111156105f2576105f161223c565b5b60405190808252806020026020018201604052801561062b57816020015b610618611992565b8152602001906001900390816106105790505b50905060005b6004805490508110156109925760006002600060048481548110610658576106576125e2565b5b906000526020600020015481526020019081526020016000209050604051806101800160405280826000015481526020018260010160009054906101000a900473ffffffffffffffffffffffffffffffffffffffff1673ffffffffffffffffffffffffffffffffffffffff1681526020018260020180546106d8906126b7565b80601f0160208091040260200160405190810160405280929190818152602001828054610704906126b7565b80156107515780601f1061072657610100808354040283529160200191610751565b820191906000526020600020905b81548152906001019060200180831161073457829003601f168201915b5050505050815260200182600301805461076a906126b7565b80601f0160208091040260200160405190810160405280929190818152602001828054610796906126b7565b80156107e35780601f106107b8576101008083540402835291602001916107e3565b820191906000526020600020905b8154815290600101906020018083116107c657829003601f168201915b505050505081526020018260040180546107fc906126b7565b80601f0160208091040260200160405190810160405280929190818152602001828054610828906126b7565b80156108755780601f1061084a57610100808354040283529160200191610875565b820191906000526020600020905b81548152906001019060200180831161085857829003601f168201915b505050505081526020018260050160009054906101000a900460ff1660038111156108a3576108a2611cba565b5b81526020018260060154815260200182600701548152602001826008015481526020018260090154815260200182600a0154815260200182600c0180548060200260200160405190810160405280929190818152602001828054801561095e57602002820191906000526020600020905b8160009054906101000a900473ffffffffffffffffffffffffffffffffffffffff1673ffffffffffffffffffffffffffffffffffffffff1681526020019060010190808311610914575b5050505050815250838381518110610979576109786125e2565b5b6020026020010181905250508080600101915050610631565b508091505090565b60006002600083815260200190815260200160002060010160009054906101000a900473ffffffffffffffffffffffffffffffffffffffff169050919050565b60026020528060005260406000206000915090508060000154908060010160009054906101000a900473ffffffffffffffffffffffffffffffffffffffff1690806002018054610a29906126b7565b80601f0160208091040260200160405190810160405280929190818152602001828054610a55906126b7565b8015610aa25780601f10610a7757610100808354040283529160200191610aa2565b820191906000526020600020905b815481529060010190602001808311610a8557829003601f168201915b505050505090806003018054610ab7906126b7565b80601f0160208091040260200160405190810160405280929190818152602001828054610ae3906126b7565b8015610b305780601f10610b0557610100808354040283529160200191610b30565b820191906000526020600020905b815481529060010190602001808311610b1357829003601f168201915b505050505090806004018054610b45906126b7565b80601f0160208091040260200160405190810160405280929190818152602001828054610b71906126b7565b8015610bbe5780601f10610b9357610100808354040283529160200191610bbe565b820191906000526020600020905b815481529060010190602001808311610ba157829003601f168201915b5050505050908060050160009054906101000a900460ff169080600601549080600701549080600801549080600901549080600a015490508b565b6060600160009054906101000a900473ffffffffffffffffffffffffffffffffffffffff1673ffffffffffffffffffffffffffffffffffffffff163373ffffffffffffffffffffffffffffffffffffffff1614610c8b576040517f08c379a0000000000000000000000000000000000000000000000000000000008152600401610c8290612734565b60405180910390fd5b600060048054905067ffffffffffffffff811115610cac57610cab61223c565b5b604051908082528060200260200182016040528015610cda5781602001602082028036833780820191505090505b5090506000805b600480549050811015610dc157600060048281548110610d0457610d036125e2565b5b906000526020600020015490506000600260008381526020019081526020016000209050428160060154108015610d70575060006003811115610d4a57610d49611cba565b5b8160050160009054906101000a900460ff166003811115610d6e57610d6d611cba565b5b145b15610db257610d7e82611822565b508060000154858581518110610d9757610d966125e2565b5b6020026020010181815250508380610dae90612640565b9450505b50508080600101915050610ce1565b50819250505090565b60035481565b60006002600083815260200190815260200160002090503373ffffffffffffffffffffffffffffffffffffffff168160010160009054906101000a900473ffffffffffffffffffffffffffffffffffffffff1673ffffffffffffffffffffffffffffffffffffffff1614610e79576040517f08c379a0000000000000000000000000000000000000000000000000000000008152600401610e70906127c6565b60405180910390fd5b60016003811115610e8d57610e8c611cba565b5b8160050160009054906101000a900460ff166003811115610eb157610eb0611cba565b5b03610ef1576040517f08c379a0000000000000000000000000000000000000000000000000000000008152600401610ee890612858565b60405180910390fd5b60038160050160006101000a81548160ff02191690836003811115610f1957610f18611cba565b5b0217905550428160080181905550817f07f971ad2fb43cf766f3d1baa91b15fbd2bd5b0a14701da5104e912939ab91b860405160405180910390a25050565b600060016003811115610f6e57610f6d611cba565b5b6002600084815260200190815260200160002060050160009054906101000a900460ff166003811115610fa457610fa3611cba565b5b149050919050565b60008054906101000a900473ffffffffffffffffffffffffffffffffffffffff1681565b600160009054906101000a900473ffffffffffffffffffffffffffffffffffffffff1673ffffffffffffffffffffffffffffffffffffffff163373ffffffffffffffffffffffffffffffffffffffff1614611060576040517f08c379a000000000000000000000000000000000000000000000000000000000815260040161105790612734565b60405180910390fd5b60006003600081548092919061107590612640565b9190505590506000600260008381526020019081526020016000209050818160000181905550868160010160006101000a81548173ffffffffffffffffffffffffffffffffffffffff021916908373ffffffffffffffffffffffffffffffffffffffff160217905550858160020190816110ef9190612a24565b50848160030190816111019190612a24565b50838160040190816111139190612a24565b5060008160050160006101000a81548160ff0219169083600381111561113c5761113b611cba565b5b021790555082816006018190555042816007018190555042816008018190555060048290806001815401808255809150506001900390600052602060002001600090919091909150553373ffffffffffffffffffffffffffffffffffffffff16827ffa99a653c4373b4e353c68118639a54b493260f42326788c4cbcc6742d56ac28886040516111cc9190612af6565b60405180910390a350505050505050565b600073ffffffffffffffffffffffffffffffffffffffff16600160009054906101000a900473ffffffffffffffffffffffffffffffffffffffff1673ffffffffffffffffffffffffffffffffffffffff161461126e576040517f08c379a000000000000000000000000000000000000000000000000000000000815260040161126590612b64565b60405180910390fd5b80600160006101000a81548173ffffffffffffffffffffffffffffffffffffffff021916908373ffffffffffffffffffffffffffffffffffffffff16021790555050565b600481815481106112c257600080fd5b906000526020600020016000915090505481565b600160009054906101000a900473ffffffffffffffffffffffffffffffffffffffff1673ffffffffffffffffffffffffffffffffffffffff163373ffffffffffffffffffffffffffffffffffffffff1614611366576040517f08c379a000000000000000000000000000000000000000000000000000000000815260040161135d90612734565b60405180910390fd5b600060026000848152602001908152602001600020905080600b0160008573ffffffffffffffffffffffffffffffffffffffff1673ffffffffffffffffffffffffffffffffffffffff16815260200190815260200160002060009054906101000a900460ff161561140c576040517f08c379a000000000000000000000000000000000000000000000000000000000815260040161140390612bf6565b60405180910390fd5b600060038111156114205761141f611cba565b5b8160050160009054906101000a900460ff16600381111561144457611443611cba565b5b14611484576040517f08c379a000000000000000000000000000000000000000000000000000000000815260040161147b90612c88565b60405180910390fd5b8181600b0160008673ffffffffffffffffffffffffffffffffffffffff1673ffffffffffffffffffffffffffffffffffffffff16815260200190815260200160002060006101000a81548160ff02191690831515021790555080600c01849080600181540180825580915050600190039060005260206000200160009091909190916101000a81548173ffffffffffffffffffffffffffffffffffffffff021916908373ffffffffffffffffffffffffffffffffffffffff16021790555081156115675780600901600081548092919061155d90612640565b9190505550611582565b80600a01600081548092919061157c90612640565b91905055505b8373ffffffffffffffffffffffffffffffffffffffff16837f5aaa9aad7433112662b9e5ae23b96ed62b00035f413ab908c55607284e0804e2846040516115c991906121eb565b60405180910390a350505050565b60006002600083815260200190815260200160002060050160009054906101000a900460ff169050919050565b60606000805b8351811015611698576001600381111561162757611626611cba565b5b6002600086848151811061163e5761163d6125e2565b5b6020026020010151815260200190815260200160002060050160009054906101000a900460ff16600381111561167757611676611cba565b5b0361168b57818061168790612640565b9250505b808060010191505061160a565b5060008167ffffffffffffffff8111156116b5576116b461223c565b5b6040519080825280602002602001820160405280156116e35781602001602082028036833780820191505090505b5090506000805b8551811015611816576001600381111561170757611706611cba565b5b6002600088848151811061171e5761171d6125e2565b5b6020026020010151815260200190815260200160002060050160009054906101000a900460ff16600381111561175757611756611cba565b5b036118095760026000878381518110611773576117726125e2565b5b6020026020010151815260200190815260200160002060010160009054906101000a900473ffffffffffffffffffffffffffffffffffffffff168383815181106117c0576117bf6125e2565b5b602002602001019073ffffffffffffffffffffffffffffffffffffffff16908173ffffffffffffffffffffffffffffffffffffffff1681525050818061180590612640565b9250505b80806001019150506116ea565b50819350505050919050565b60008060026000848152602001908152602001600020905080600a0154816009015411156118f25760018160050160006101000a81548160ff0219169083600381111561187257611871611cba565b5b02179055504281600801819055508060010160009054906101000a900473ffffffffffffffffffffffffffffffffffffffff1673ffffffffffffffffffffffffffffffffffffffff16837fcf2d0e285bec7ddef8598a19875582b50acc4777117f7fe5d1718e59811761be60405160405180910390a3600191505061198d565b60028160050160006101000a81548160ff0219169083600381111561191a57611919611cba565b5b02179055508060010160009054906101000a900473ffffffffffffffffffffffffffffffffffffffff1673ffffffffffffffffffffffffffffffffffffffff16837fcf2d0e285bec7ddef8598a19875582b50acc4777117f7fe5d1718e59811761be60405160405180910390a360009150505b919050565b60405180610180016040528060008152602001600073ffffffffffffffffffffffffffffffffffffffff168152602001606081526020016060815260200160608152602001600060038111156119eb576119ea611cba565b5b81526020016000815260200160008152602001600081526020016000815260200160008152602001606081525090565b6000604051905090565b600080fd5b600080fd5b6000819050919050565b611a4281611a2f565b8114611a4d57600080fd5b50565b600081359050611a5f81611a39565b92915050565b60008115159050919050565b611a7a81611a65565b8114611a8557600080fd5b50565b600081359050611a9781611a71565b92915050565b60008060408385031215611ab457611ab3611a25565b5b6000611ac285828601611a50565b9250506020611ad385828601611a88565b9150509250929050565b600081519050919050565b600082825260208201905092915050565b6000819050602082019050919050565b600073ffffffffffffffffffffffffffffffffffffffff82169050919050565b6000611b3482611b09565b9050919050565b611b4481611b29565b82525050565b6000611b568383611b3b565b60208301905092915050565b6000602082019050919050565b6000611b7a82611add565b611b848185611ae8565b9350611b8f83611af9565b8060005b83811015611bc0578151611ba78882611b4a565b9750611bb283611b62565b925050600181019050611b93565b5085935050505092915050565b60006020820190508181036000830152611be78184611b6f565b905092915050565b600081519050919050565b600082825260208201905092915050565b6000819050602082019050919050565b611c2481611a2f565b82525050565b600081519050919050565b600082825260208201905092915050565b60005b83811015611c64578082015181840152602081019050611c49565b60008484015250505050565b6000601f19601f8301169050919050565b6000611c8c82611c2a565b611c968185611c35565b9350611ca6818560208601611c46565b611caf81611c70565b840191505092915050565b7f4e487b7100000000000000000000000000000000000000000000000000000000600052602160045260246000fd5b60048110611cfa57611cf9611cba565b5b50565b6000819050611d0b82611ce9565b919050565b6000611d1b82611cfd565b9050919050565b611d2b81611d10565b82525050565b600082825260208201905092915050565b6000611d4d82611add565b611d578185611d31565b9350611d6283611af9565b8060005b83811015611d93578151611d7a8882611b4a565b9750611d8583611b62565b925050600181019050611d66565b5085935050505092915050565b600061018083016000830151611db96000860182611c1b565b506020830151611dcc6020860182611b3b565b5060408301518482036040860152611de48282611c81565b91505060608301518482036060860152611dfe8282611c81565b91505060808301518482036080860152611e188282611c81565b91505060a0830151611e2d60a0860182611d22565b5060c0830151611e4060c0860182611c1b565b5060e0830151611e5360e0860182611c1b565b50610100830151611e68610100860182611c1b565b50610120830151611e7d610120860182611c1b565b50610140830151611e92610140860182611c1b565b50610160830151848203610160860152611eac8282611d42565b9150508091505092915050565b6000611ec58383611da0565b905092915050565b6000602082019050919050565b6000611ee582611bef565b611eef8185611bfa565b935083602082028501611f0185611c0b565b8060005b85811015611f3d5784840389528151611f1e8582611eb9565b9450611f2983611ecd565b925060208a01995050600181019050611f05565b50829750879550505050505092915050565b60006020820190508181036000830152611f698184611eda565b905092915050565b600060208284031215611f8757611f86611a25565b5b6000611f9584828501611a50565b91505092915050565b611fa781611b29565b82525050565b6000602082019050611fc26000830184611f9e565b92915050565b611fd181611a2f565b82525050565b600082825260208201905092915050565b6000611ff382611c2a565b611ffd8185611fd7565b935061200d818560208601611c46565b61201681611c70565b840191505092915050565b61202a81611d10565b82525050565b600061016082019050612046600083018e611fc8565b612053602083018d611f9e565b8181036040830152612065818c611fe8565b90508181036060830152612079818b611fe8565b9050818103608083015261208d818a611fe8565b905061209c60a0830189612021565b6120a960c0830188611fc8565b6120b660e0830187611fc8565b6120c4610100830186611fc8565b6120d2610120830185611fc8565b6120e0610140830184611fc8565b9c9b505050505050505050505050565b600081519050919050565b600082825260208201905092915050565b6000819050602082019050919050565b60006121288383611c1b565b60208301905092915050565b6000602082019050919050565b600061214c826120f0565b61215681856120fb565b93506121618361210c565b8060005b83811015612192578151612179888261211c565b975061218483612134565b925050600181019050612165565b5085935050505092915050565b600060208201905081810360008301526121b98184612141565b905092915050565b60006020820190506121d66000830184611fc8565b92915050565b6121e581611a65565b82525050565b600060208201905061220060008301846121dc565b92915050565b61220f81611b29565b811461221a57600080fd5b50565b60008135905061222c81612206565b92915050565b600080fd5b600080fd5b7f4e487b7100000000000000000000000000000000000000000000000000000000600052604160045260246000fd5b61227482611c70565b810181811067ffffffffffffffff821117156122935761229261223c565b5b80604052505050565b60006122a6611a1b565b90506122b2828261226b565b919050565b600067ffffffffffffffff8211156122d2576122d161223c565b5b6122db82611c70565b9050602081019050919050565b82818337600083830152505050565b600061230a612305846122b7565b61229c565b90508281526020810184848401111561232657612325612237565b5b6123318482856122e8565b509392505050565b600082601f83011261234e5761234d612232565b5b813561235e8482602086016122f7565b91505092915050565b600080600080600060a0868803121561238357612382611a25565b5b60006123918882890161221d565b955050602086013567ffffffffffffffff8111156123b2576123b1611a2a565b5b6123be88828901612339565b945050604086013567ffffffffffffffff8111156123df576123de611a2a565b5b6123eb88828901612339565b935050606086013567ffffffffffffffff81111561240c5761240b611a2a565b5b61241888828901612339565b925050608061242988828901611a50565b9150509295509295909350565b60006020828403121561244c5761244b611a25565b5b600061245a8482850161221d565b91505092915050565b60008060006060848603121561247c5761247b611a25565b5b600061248a8682870161221d565b935050602061249b86828701611a50565b92505060406124ac86828701611a88565b9150509250925092565b60006020820190506124cb6000830184612021565b92915050565b600067ffffffffffffffff8211156124ec576124eb61223c565b5b602082029050602081019050919050565b600080fd5b6000612515612510846124d1565b61229c565b90508083825260208201905060208402830185811115612538576125376124fd565b5b835b81811015612561578061254d8882611a50565b84526020840193505060208101905061253a565b5050509392505050565b600082601f8301126125805761257f612232565b5b8135612590848260208601612502565b91505092915050565b6000602082840312156125af576125ae611a25565b5b600082013567ffffffffffffffff8111156125cd576125cc611a2a565b5b6125d98482850161256b565b91505092915050565b7f4e487b7100000000000000000000000000000000000000000000000000000000600052603260045260246000fd5b7f4e487b7100000000000000000000000000000000000000000000000000000000600052601160045260246000fd5b600061264b82611a2f565b91507fffffffffffffffffffffffffffffffffffffffffffffffffffffffffffffffff820361267d5761267c612611565b5b600182019050919050565b7f4e487b7100000000000000000000000000000000000000000000000000000000600052602260045260246000fd5b600060028204905060018216806126cf57607f821691505b6020821081036126e2576126e1612688565b5b50919050565b7f43616c6c6572206973206e6f7420746865205041474120636f6e747261637400600082015250565b600061271e601f83611fd7565b9150612729826126e8565b602082019050919050565b6000602082019050818103600083015261274d81612711565b9050919050565b7f4f6e6c792074686520617574686f722063616e2063616e63656c20746865206360008201527f6f6d6d69746d656e740000000000000000000000000000000000000000000000602082015250565b60006127b0602983611fd7565b91506127bb82612754565b604082019050919050565b600060208201905081810360008301526127df816127a3565b9050919050565b7f43616e6e6f742063616e63656c20612066756c66696c6c656420636f6d6d697460008201527f6d656e7400000000000000000000000000000000000000000000000000000000602082015250565b6000612842602483611fd7565b915061284d826127e6565b604082019050919050565b6000602082019050818103600083015261287181612835565b9050919050565b60008190508160005260206000209050919050565b60006020601f8301049050919050565b600082821b905092915050565b6000600883026128da7fffffffffffffffffffffffffffffffffffffffffffffffffffffffffffffffff8261289d565b6128e4868361289d565b95508019841693508086168417925050509392505050565b6000819050919050565b600061292161291c61291784611a2f565b6128fc565b611a2f565b9050919050565b6000819050919050565b61293b83612906565b61294f61294782612928565b8484546128aa565b825550505050565b600090565b612964612957565b61296f818484612932565b505050565b5b818110156129935761298860008261295c565b600181019050612975565b5050565b601f8211156129d8576129a981612878565b6129b28461288d565b810160208510156129c1578190505b6129d56129cd8561288d565b830182612974565b50505b505050565b600082821c905092915050565b60006129fb600019846008026129dd565b1980831691505092915050565b6000612a1483836129ea565b9150826002028217905092915050565b612a2d82611c2a565b67ffffffffffffffff811115612a4657612a4561223c565b5b612a5082546126b7565b612a5b828285612997565b600060209050601f831160018114612a8e5760008415612a7c578287015190505b612a868582612a08565b865550612aee565b601f198416612a9c86612878565b60005b82811015612ac457848901518255600182019150602085019450602081019050612a9f565b86831015612ae15784890151612add601f8916826129ea565b8355505b6001600288020188555050505b505050505050565b60006020820190508181036000830152612b108184611fe8565b905092915050565b7f5041474120636f6e747261637420616c72656164792073657400000000000000600082015250565b6000612b4e601983611fd7565b9150612b5982612b18565b602082019050919050565b60006020820190508181036000830152612b7d81612b41565b9050919050565b7f596f75206861766520616c726561647920766f746564206f6e2074686973206360008201527f6f6d6d69746d656e740000000000000000000000000000000000000000000000602082015250565b6000612be0602983611fd7565b9150612beb82612b84565b604082019050919050565b60006020820190508181036000830152612c0f81612bd3565b9050919050565b7f43616e6e6f7420766f7465206f6e206120636f6d6d69746d656e74207468617460008201527f206973206e6f742070656e64696e670000000000000000000000000000000000602082015250565b6000612c72602f83611fd7565b9150612c7d82612c16565b604082019050919050565b60006020820190508181036000830152612ca181612c65565b905091905056fea264697066735822122004747cbfb765990c343960f9a3b798013aa4680a4101396c0ba25dc5cc1050c164736f6c634300081c0033",
    "linkReferences": {},
    "deployedLinkReferences": {}
}