{
  "_format": "hh-sol-artifact-1",
  "contractName": "User",
  "sourceName": "contracts/User.sol",
  "abi": [
    {
      "inputs": [
        {
          "internalType": "string",
          "name": "_profilePictureURI",
          "type": "string"
        },
        {
          "internalType": "string",
          "name": "_politicianParty",
          "type": "string"
        },
        {
          "internalType": "string",
          "name": "_name",
          "type": "string"
        },
        {
          "internalType": "string",
          "name": "_politicianRole",
          "type": "string"
        },
        {
          "internalType": "enum User.UserRole",
          "name": "_role",
          "type": "uint8"
        }
      ],
      "name": "createUser",
      "outputs": [],
      "stateMutability": "nonpayable",
      "type": "function"
    },
    {
      "inputs": [],
      "name": "getAll",
      "outputs": [
        {
          "components": [
            {
              "internalType": "address",
              "name": "addr",
              "type": "address"
            },
            {
              "internalType": "string",
              "name": "profilePictureURI",
              "type": "string"
            },
            {
              "internalType": "string",
              "name": "politicianParty",
              "type": "string"
            },
            {
              "internalType": "string",
              "name": "name",
              "type": "string"
            },
            {
              "internalType": "string",
              "name": "politicianRole",
              "type": "string"
            },
            {
              "internalType": "enum User.UserRole",
              "name": "role",
              "type": "uint8"
            },
            {
              "internalType": "uint256",
              "name": "createdAt",
              "type": "uint256"
            },
            {
              "internalType": "uint256",
              "name": "updatedAt",
              "type": "uint256"
            }
          ],
          "internalType": "struct User.UserData[]",
          "name": "",
          "type": "tuple[]"
        }
      ],
      "stateMutability": "view",
      "type": "function"
    },
    {
      "inputs": [
        {
          "internalType": "address",
          "name": "_address",
          "type": "address"
        }
      ],
      "name": "getUser",
      "outputs": [
        {
          "components": [
            {
              "internalType": "address",
              "name": "addr",
              "type": "address"
            },
            {
              "internalType": "string",
              "name": "profilePictureURI",
              "type": "string"
            },
            {
              "internalType": "string",
              "name": "politicianParty",
              "type": "string"
            },
            {
              "internalType": "string",
              "name": "name",
              "type": "string"
            },
            {
              "internalType": "string",
              "name": "politicianRole",
              "type": "string"
            },
            {
              "internalType": "enum User.UserRole",
              "name": "role",
              "type": "uint8"
            },
            {
              "internalType": "uint256",
              "name": "createdAt",
              "type": "uint256"
            },
            {
              "internalType": "uint256",
              "name": "updatedAt",
              "type": "uint256"
            }
          ],
          "internalType": "struct User.UserData",
          "name": "",
          "type": "tuple"
        }
      ],
      "stateMutability": "view",
      "type": "function"
    },
    {
      "inputs": [
        {
          "internalType": "address",
          "name": "_address",
          "type": "address"
        },
        {
          "internalType": "string",
          "name": "_profilePictureURI",
          "type": "string"
        },
        {
          "internalType": "string",
          "name": "_politicianParty",
          "type": "string"
        },
        {
          "internalType": "string",
          "name": "_name",
          "type": "string"
        },
        {
          "internalType": "string",
          "name": "_politicianRole",
          "type": "string"
        },
        {
          "internalType": "enum User.UserRole",
          "name": "_role",
          "type": "uint8"
        }
      ],
      "name": "updateUser",
      "outputs": [],
      "stateMutability": "nonpayable",
      "type": "function"
    },
    {
      "inputs": [
        {
          "internalType": "uint256",
          "name": "",
          "type": "uint256"
        }
      ],
      "name": "users",
      "outputs": [
        {
          "internalType": "address",
          "name": "addr",
          "type": "address"
        },
        {
          "internalType": "string",
          "name": "profilePictureURI",
          "type": "string"
        },
        {
          "internalType": "string",
          "name": "politicianParty",
          "type": "string"
        },
        {
          "internalType": "string",
          "name": "name",
          "type": "string"
        },
        {
          "internalType": "string",
          "name": "politicianRole",
          "type": "string"
        },
        {
          "internalType": "enum User.UserRole",
          "name": "role",
          "type": "uint8"
        },
        {
          "internalType": "uint256",
          "name": "createdAt",
          "type": "uint256"
        },
        {
          "internalType": "uint256",
          "name": "updatedAt",
          "type": "uint256"
        }
      ],
      "stateMutability": "view",
      "type": "function"
    }
  ],
  "bytecode": "0x6080604052348015600f57600080fd5b50611dc08061001f6000396000f3fe608060405234801561001057600080fd5b50600436106100575760003560e01c80630ce10a881461005c578063365b98b21461007857806353ed5143146100af5780636f77926b146100cd578063c445474a146100fd575b600080fd5b61007660048036038101906100719190611215565b610119565b005b610092600480360381019061008d9190611348565b6103ca565b6040516100a6989796959493929190611489565b60405180910390f35b6100b761066f565b6040516100c49190611721565b60405180910390f35b6100e760048036038101906100e29190611743565b6109bc565b6040516100f49190611835565b60405180910390f35b61011760048036038101906101129190611857565b610e4c565b005b600073ffffffffffffffffffffffffffffffffffffffff168673ffffffffffffffffffffffffffffffffffffffff1603610188576040517f08c379a000000000000000000000000000000000000000000000000000000000815260040161017f9061198e565b60405180910390fd5b60005b60008054905081101561038657600081815481106101ac576101ab6119ae565b5b906000526020600020906008020160000160009054906101000a900473ffffffffffffffffffffffffffffffffffffffff166040516020016101ee9190611a25565b60405160208183030381529060405280519060200120876040516020016102159190611a25565b6040516020818303038152906040528051906020012003610379578560008281548110610245576102446119ae565b5b906000526020600020906008020160010190816102629190611c4c565b508460008281548110610278576102776119ae565b5b906000526020600020906008020160020190816102959190611c4c565b5083600082815481106102ab576102aa6119ae565b5b906000526020600020906008020160030190816102c89190611c4c565b5082600082815481106102de576102dd6119ae565b5b906000526020600020906008020160040190816102fb9190611c4c565b508160008281548110610311576103106119ae565b5b906000526020600020906008020160050160006101000a81548160ff0219169083600281111561034457610343611403565b5b0217905550426000828154811061035e5761035d6119ae565b5b906000526020600020906008020160070181905550506103c2565b808060010191505061018b565b506040517f08c379a00000000000000000000000000000000000000000000000000000000081526004016103b990611d6a565b60405180910390fd5b505050505050565b600081815481106103da57600080fd5b90600052602060002090600802016000915090508060000160009054906101000a900473ffffffffffffffffffffffffffffffffffffffff169080600101805461042390611a6f565b80601f016020809104026020016040519081016040528092919081815260200182805461044f90611a6f565b801561049c5780601f106104715761010080835404028352916020019161049c565b820191906000526020600020905b81548152906001019060200180831161047f57829003601f168201915b5050505050908060020180546104b190611a6f565b80601f01602080910402602001604051908101604052809291908181526020018280546104dd90611a6f565b801561052a5780601f106104ff5761010080835404028352916020019161052a565b820191906000526020600020905b81548152906001019060200180831161050d57829003601f168201915b50505050509080600301805461053f90611a6f565b80601f016020809104026020016040519081016040528092919081815260200182805461056b90611a6f565b80156105b85780601f1061058d576101008083540402835291602001916105b8565b820191906000526020600020905b81548152906001019060200180831161059b57829003601f168201915b5050505050908060040180546105cd90611a6f565b80601f01602080910402602001604051908101604052809291908181526020018280546105f990611a6f565b80156106465780601f1061061b57610100808354040283529160200191610646565b820191906000526020600020905b81548152906001019060200180831161062957829003601f168201915b5050505050908060050160009054906101000a900460ff16908060060154908060070154905088565b60606000805480602002602001604051908101604052809291908181526020016000905b828210156109b35783829060005260206000209060080201604051806101000160405290816000820160009054906101000a900473ffffffffffffffffffffffffffffffffffffffff1673ffffffffffffffffffffffffffffffffffffffff1673ffffffffffffffffffffffffffffffffffffffff16815260200160018201805461071d90611a6f565b80601f016020809104026020016040519081016040528092919081815260200182805461074990611a6f565b80156107965780601f1061076b57610100808354040283529160200191610796565b820191906000526020600020905b81548152906001019060200180831161077957829003601f168201915b505050505081526020016002820180546107af90611a6f565b80601f01602080910402602001604051908101604052809291908181526020018280546107db90611a6f565b80156108285780601f106107fd57610100808354040283529160200191610828565b820191906000526020600020905b81548152906001019060200180831161080b57829003601f168201915b5050505050815260200160038201805461084190611a6f565b80601f016020809104026020016040519081016040528092919081815260200182805461086d90611a6f565b80156108ba5780601f1061088f576101008083540402835291602001916108ba565b820191906000526020600020905b81548152906001019060200180831161089d57829003601f168201915b505050505081526020016004820180546108d390611a6f565b80601f01602080910402602001604051908101604052809291908181526020018280546108ff90611a6f565b801561094c5780601f106109215761010080835404028352916020019161094c565b820191906000526020600020905b81548152906001019060200180831161092f57829003601f168201915b505050505081526020016005820160009054906101000a900460ff16600281111561097a57610979611403565b5b600281111561098c5761098b611403565b5b81526020016006820154815260200160078201548152505081526020019060010190610693565b50505050905090565b6109c4610fcb565b600073ffffffffffffffffffffffffffffffffffffffff168273ffffffffffffffffffffffffffffffffffffffff1603610a33576040517f08c379a0000000000000000000000000000000000000000000000000000000008152600401610a2a9061198e565b60405180910390fd5b60005b600080549050811015610e0b5760008181548110610a5757610a566119ae565b5b906000526020600020906008020160000160009054906101000a900473ffffffffffffffffffffffffffffffffffffffff16604051602001610a999190611a25565b6040516020818303038152906040528051906020012083604051602001610ac09190611a25565b6040516020818303038152906040528051906020012003610dfe5760008181548110610aef57610aee6119ae565b5b9060005260206000209060080201604051806101000160405290816000820160009054906101000a900473ffffffffffffffffffffffffffffffffffffffff1673ffffffffffffffffffffffffffffffffffffffff1673ffffffffffffffffffffffffffffffffffffffff168152602001600182018054610b6f90611a6f565b80601f0160208091040260200160405190810160405280929190818152602001828054610b9b90611a6f565b8015610be85780601f10610bbd57610100808354040283529160200191610be8565b820191906000526020600020905b815481529060010190602001808311610bcb57829003601f168201915b50505050508152602001600282018054610c0190611a6f565b80601f0160208091040260200160405190810160405280929190818152602001828054610c2d90611a6f565b8015610c7a5780601f10610c4f57610100808354040283529160200191610c7a565b820191906000526020600020905b815481529060010190602001808311610c5d57829003601f168201915b50505050508152602001600382018054610c9390611a6f565b80601f0160208091040260200160405190810160405280929190818152602001828054610cbf90611a6f565b8015610d0c5780601f10610ce157610100808354040283529160200191610d0c565b820191906000526020600020905b815481529060010190602001808311610cef57829003601f168201915b50505050508152602001600482018054610d2590611a6f565b80601f0160208091040260200160405190810160405280929190818152602001828054610d5190611a6f565b8015610d9e5780601f10610d7357610100808354040283529160200191610d9e565b820191906000526020600020905b815481529060010190602001808311610d8157829003601f168201915b505050505081526020016005820160009054906101000a900460ff166002811115610dcc57610dcb611403565b5b6002811115610dde57610ddd611403565b5b815260200160068201548152602001600782015481525050915050610e47565b8080600101915050610a36565b506040517f08c379a0000000000000000000000000000000000000000000000000000000008152600401610e3e90611d6a565b60405180910390fd5b919050565b60006040518061010001604052803373ffffffffffffffffffffffffffffffffffffffff168152602001878152602001868152602001858152602001848152602001836002811115610ea157610ea0611403565b5b8152602001428152602001428152509050600081908060018154018082558091505060019003906000526020600020906008020160009091909190915060008201518160000160006101000a81548173ffffffffffffffffffffffffffffffffffffffff021916908373ffffffffffffffffffffffffffffffffffffffff1602179055506020820151816001019081610f3a9190611c4c565b506040820151816002019081610f509190611c4c565b506060820151816003019081610f669190611c4c565b506080820151816004019081610f7c9190611c4c565b5060a08201518160050160006101000a81548160ff02191690836002811115610fa857610fa7611403565b5b021790555060c0820151816006015560e082015181600701555050505050505050565b604051806101000160405280600073ffffffffffffffffffffffffffffffffffffffff168152602001606081526020016060815260200160608152602001606081526020016000600281111561102457611023611403565b5b815260200160008152602001600081525090565b6000604051905090565b600080fd5b600080fd5b600073ffffffffffffffffffffffffffffffffffffffff82169050919050565b60006110778261104c565b9050919050565b6110878161106c565b811461109257600080fd5b50565b6000813590506110a48161107e565b92915050565b600080fd5b600080fd5b6000601f19601f8301169050919050565b7f4e487b7100000000000000000000000000000000000000000000000000000000600052604160045260246000fd5b6110fd826110b4565b810181811067ffffffffffffffff8211171561111c5761111b6110c5565b5b80604052505050565b600061112f611038565b905061113b82826110f4565b919050565b600067ffffffffffffffff82111561115b5761115a6110c5565b5b611164826110b4565b9050602081019050919050565b82818337600083830152505050565b600061119361118e84611140565b611125565b9050828152602081018484840111156111af576111ae6110af565b5b6111ba848285611171565b509392505050565b600082601f8301126111d7576111d66110aa565b5b81356111e7848260208601611180565b91505092915050565b600381106111fd57600080fd5b50565b60008135905061120f816111f0565b92915050565b60008060008060008060c0878903121561123257611231611042565b5b600061124089828a01611095565b965050602087013567ffffffffffffffff81111561126157611260611047565b5b61126d89828a016111c2565b955050604087013567ffffffffffffffff81111561128e5761128d611047565b5b61129a89828a016111c2565b945050606087013567ffffffffffffffff8111156112bb576112ba611047565b5b6112c789828a016111c2565b935050608087013567ffffffffffffffff8111156112e8576112e7611047565b5b6112f489828a016111c2565b92505060a061130589828a01611200565b9150509295509295509295565b6000819050919050565b61132581611312565b811461133057600080fd5b50565b6000813590506113428161131c565b92915050565b60006020828403121561135e5761135d611042565b5b600061136c84828501611333565b91505092915050565b61137e8161106c565b82525050565b600081519050919050565b600082825260208201905092915050565b60005b838110156113be5780820151818401526020810190506113a3565b60008484015250505050565b60006113d582611384565b6113df818561138f565b93506113ef8185602086016113a0565b6113f8816110b4565b840191505092915050565b7f4e487b7100000000000000000000000000000000000000000000000000000000600052602160045260246000fd5b6003811061144357611442611403565b5b50565b600081905061145482611432565b919050565b600061146482611446565b9050919050565b61147481611459565b82525050565b61148381611312565b82525050565b60006101008201905061149f600083018b611375565b81810360208301526114b1818a6113ca565b905081810360408301526114c581896113ca565b905081810360608301526114d981886113ca565b905081810360808301526114ed81876113ca565b90506114fc60a083018661146b565b61150960c083018561147a565b61151660e083018461147a565b9998505050505050505050565b600081519050919050565b600082825260208201905092915050565b6000819050602082019050919050565b6115588161106c565b82525050565b600082825260208201905092915050565b600061157a82611384565b611584818561155e565b93506115948185602086016113a0565b61159d816110b4565b840191505092915050565b6115b181611459565b82525050565b6115c081611312565b82525050565b6000610100830160008301516115df600086018261154f565b50602083015184820360208601526115f7828261156f565b91505060408301518482036040860152611611828261156f565b9150506060830151848203606086015261162b828261156f565b91505060808301518482036080860152611645828261156f565b91505060a083015161165a60a08601826115a8565b5060c083015161166d60c08601826115b7565b5060e083015161168060e08601826115b7565b508091505092915050565b600061169783836115c6565b905092915050565b6000602082019050919050565b60006116b782611523565b6116c1818561152e565b9350836020820285016116d38561153f565b8060005b8581101561170f57848403895281516116f0858261168b565b94506116fb8361169f565b925060208a019950506001810190506116d7565b50829750879550505050505092915050565b6000602082019050818103600083015261173b81846116ac565b905092915050565b60006020828403121561175957611758611042565b5b600061176784828501611095565b91505092915050565b600061010083016000830151611789600086018261154f565b50602083015184820360208601526117a1828261156f565b915050604083015184820360408601526117bb828261156f565b915050606083015184820360608601526117d5828261156f565b915050608083015184820360808601526117ef828261156f565b91505060a083015161180460a08601826115a8565b5060c083015161181760c08601826115b7565b5060e083015161182a60e08601826115b7565b508091505092915050565b6000602082019050818103600083015261184f8184611770565b905092915050565b600080600080600060a0868803121561187357611872611042565b5b600086013567ffffffffffffffff81111561189157611890611047565b5b61189d888289016111c2565b955050602086013567ffffffffffffffff8111156118be576118bd611047565b5b6118ca888289016111c2565b945050604086013567ffffffffffffffff8111156118eb576118ea611047565b5b6118f7888289016111c2565b935050606086013567ffffffffffffffff81111561191857611917611047565b5b611924888289016111c2565b925050608061193588828901611200565b9150509295509295909350565b7f496e76616c696420616464726573730000000000000000000000000000000000600082015250565b6000611978600f8361138f565b915061198382611942565b602082019050919050565b600060208201905081810360008301526119a78161196b565b9050919050565b7f4e487b7100000000000000000000000000000000000000000000000000000000600052603260045260246000fd5b60008160601b9050919050565b60006119f5826119dd565b9050919050565b6000611a07826119ea565b9050919050565b611a1f611a1a8261106c565b6119fc565b82525050565b6000611a318284611a0e565b60148201915081905092915050565b7f4e487b7100000000000000000000000000000000000000000000000000000000600052602260045260246000fd5b60006002820490506001821680611a8757607f821691505b602082108103611a9a57611a99611a40565b5b50919050565b60008190508160005260206000209050919050565b60006020601f8301049050919050565b600082821b905092915050565b600060088302611b027fffffffffffffffffffffffffffffffffffffffffffffffffffffffffffffffff82611ac5565b611b0c8683611ac5565b95508019841693508086168417925050509392505050565b6000819050919050565b6000611b49611b44611b3f84611312565b611b24565b611312565b9050919050565b6000819050919050565b611b6383611b2e565b611b77611b6f82611b50565b848454611ad2565b825550505050565b600090565b611b8c611b7f565b611b97818484611b5a565b505050565b5b81811015611bbb57611bb0600082611b84565b600181019050611b9d565b5050565b601f821115611c0057611bd181611aa0565b611bda84611ab5565b81016020851015611be9578190505b611bfd611bf585611ab5565b830182611b9c565b50505b505050565b600082821c905092915050565b6000611c2360001984600802611c05565b1980831691505092915050565b6000611c3c8383611c12565b9150826002028217905092915050565b611c5582611384565b67ffffffffffffffff811115611c6e57611c6d6110c5565b5b611c788254611a6f565b611c83828285611bbf565b600060209050601f831160018114611cb65760008415611ca4578287015190505b611cae8582611c30565b865550611d16565b601f198416611cc486611aa0565b60005b82811015611cec57848901518255600182019150602085019450602081019050611cc7565b86831015611d095784890151611d05601f891682611c12565b8355505b6001600288020188555050505b505050505050565b7f55736572206e6f7420666f756e64000000000000000000000000000000000000600082015250565b6000611d54600e8361138f565b9150611d5f82611d1e565b602082019050919050565b60006020820190508181036000830152611d8381611d47565b905091905056fea2646970667358221220bd0055c01b2083ebe4cb3d1daa0da10cdd61e71c7483d26c21192adf5335c83264736f6c634300081c0033",
  "linkReferences": {},
  "deployedLinkReferences": {}
}